{
  "_format": "hh-sol-artifact-1",
  "contractName": "PunkNft",
  "sourceName": "contracts/PunkNft.sol",
  "abi": [
    {
      "inputs": [],
      "stateMutability": "nonpayable",
      "type": "constructor"
    },
    {
      "anonymous": false,
      "inputs": [
        {
          "indexed": true,
          "internalType": "address",
          "name": "owner",
          "type": "address"
        },
        {
          "indexed": true,
          "internalType": "address",
          "name": "approved",
          "type": "address"
        },
        {
          "indexed": true,
          "internalType": "uint256",
          "name": "tokenId",
          "type": "uint256"
        }
      ],
      "name": "Approval",
      "type": "event"
    },
    {
      "anonymous": false,
      "inputs": [
        {
          "indexed": true,
          "internalType": "address",
          "name": "owner",
          "type": "address"
        },
        {
          "indexed": true,
          "internalType": "address",
          "name": "operator",
          "type": "address"
        },
        {
          "indexed": false,
          "internalType": "bool",
          "name": "approved",
          "type": "bool"
        }
      ],
      "name": "ApprovalForAll",
      "type": "event"
    },
    {
      "anonymous": false,
      "inputs": [
        {
          "indexed": true,
          "internalType": "address",
          "name": "from",
          "type": "address"
        },
        {
          "indexed": true,
          "internalType": "address",
          "name": "to",
          "type": "address"
        },
        {
          "indexed": true,
          "internalType": "uint256",
          "name": "tokenId",
          "type": "uint256"
        }
      ],
      "name": "Transfer",
      "type": "event"
    },
    {
      "inputs": [
        {
          "internalType": "address",
          "name": "to",
          "type": "address"
        },
        {
          "internalType": "uint256",
          "name": "tokenId",
          "type": "uint256"
        }
      ],
      "name": "approve",
      "outputs": [],
      "stateMutability": "nonpayable",
      "type": "function"
    },
    {
      "inputs": [
        {
          "internalType": "address",
          "name": "owner",
          "type": "address"
        }
      ],
      "name": "balanceOf",
      "outputs": [
        {
          "internalType": "uint256",
          "name": "",
          "type": "uint256"
        }
      ],
      "stateMutability": "view",
      "type": "function"
    },
    {
      "inputs": [
        {
          "internalType": "uint256",
          "name": "tokenId",
          "type": "uint256"
        }
      ],
      "name": "getApproved",
      "outputs": [
        {
          "internalType": "address",
          "name": "",
          "type": "address"
        }
      ],
      "stateMutability": "view",
      "type": "function"
    },
    {
      "inputs": [
        {
          "internalType": "address",
          "name": "owner",
          "type": "address"
        },
        {
          "internalType": "address",
          "name": "operator",
          "type": "address"
        }
      ],
      "name": "isApprovedForAll",
      "outputs": [
        {
          "internalType": "bool",
          "name": "",
          "type": "bool"
        }
      ],
      "stateMutability": "view",
      "type": "function"
    },
    {
      "inputs": [
        {
          "internalType": "address",
          "name": "receiver",
          "type": "address"
        },
        {
          "internalType": "string",
          "name": "tokenURI",
          "type": "string"
        },
        {
          "internalType": "string",
          "name": "name",
          "type": "string"
        },
        {
          "internalType": "string",
          "name": "description",
          "type": "string"
        }
      ],
      "name": "mint",
      "outputs": [
        {
          "internalType": "uint256",
          "name": "",
          "type": "uint256"
        }
      ],
      "stateMutability": "nonpayable",
      "type": "function"
    },
    {
      "inputs": [],
      "name": "name",
      "outputs": [
        {
          "internalType": "string",
          "name": "",
          "type": "string"
        }
      ],
      "stateMutability": "view",
      "type": "function"
    },
    {
      "inputs": [
        {
          "internalType": "uint256",
          "name": "tokenId",
          "type": "uint256"
        }
      ],
      "name": "ownerOf",
      "outputs": [
        {
          "internalType": "address",
          "name": "",
          "type": "address"
        }
      ],
      "stateMutability": "view",
      "type": "function"
    },
    {
      "inputs": [
        {
          "internalType": "address",
          "name": "from",
          "type": "address"
        },
        {
          "internalType": "address",
          "name": "to",
          "type": "address"
        },
        {
          "internalType": "uint256",
          "name": "tokenId",
          "type": "uint256"
        }
      ],
      "name": "safeTransferFrom",
      "outputs": [],
      "stateMutability": "nonpayable",
      "type": "function"
    },
    {
      "inputs": [
        {
          "internalType": "address",
          "name": "from",
          "type": "address"
        },
        {
          "internalType": "address",
          "name": "to",
          "type": "address"
        },
        {
          "internalType": "uint256",
          "name": "tokenId",
          "type": "uint256"
        },
        {
          "internalType": "bytes",
          "name": "_data",
          "type": "bytes"
        }
      ],
      "name": "safeTransferFrom",
      "outputs": [],
      "stateMutability": "nonpayable",
      "type": "function"
    },
    {
      "inputs": [
        {
          "internalType": "address",
          "name": "operator",
          "type": "address"
        },
        {
          "internalType": "bool",
          "name": "approved",
          "type": "bool"
        }
      ],
      "name": "setApprovalForAll",
      "outputs": [],
      "stateMutability": "nonpayable",
      "type": "function"
    },
    {
      "inputs": [
        {
          "internalType": "bytes4",
          "name": "interfaceId",
          "type": "bytes4"
        }
      ],
      "name": "supportsInterface",
      "outputs": [
        {
          "internalType": "bool",
          "name": "",
          "type": "bool"
        }
      ],
      "stateMutability": "view",
      "type": "function"
    },
    {
      "inputs": [],
      "name": "symbol",
      "outputs": [
        {
          "internalType": "string",
          "name": "",
          "type": "string"
        }
      ],
      "stateMutability": "view",
      "type": "function"
    },
    {
      "inputs": [
        {
          "internalType": "uint256",
          "name": "tokenId",
          "type": "uint256"
        }
      ],
      "name": "tokenURI",
      "outputs": [
        {
          "internalType": "string",
          "name": "",
          "type": "string"
        }
      ],
      "stateMutability": "view",
      "type": "function"
    },
    {
      "inputs": [
        {
          "internalType": "address",
          "name": "from",
          "type": "address"
        },
        {
          "internalType": "address",
          "name": "to",
          "type": "address"
        },
        {
          "internalType": "uint256",
          "name": "tokenId",
          "type": "uint256"
        }
      ],
      "name": "transferFrom",
      "outputs": [],
      "stateMutability": "nonpayable",
      "type": "function"
    }
  ],
  "bytecode": "0x60806040523480156200001157600080fd5b506040518060400160405280600a81526020017f50756e6b20546f6b656e000000000000000000000000000000000000000000008152506040518060400160405280600381526020017f504b540000000000000000000000000000000000000000000000000000000000815250816000908051906020019062000096929190620000b8565b508060019080519060200190620000af929190620000b8565b505050620001cd565b828054620000c69062000168565b90600052602060002090601f016020900481019282620000ea576000855562000136565b82601f106200010557805160ff191683800117855562000136565b8280016001018555821562000136579182015b828111156200013557825182559160200191906001019062000118565b5b50905062000145919062000149565b5090565b5b80821115620001645760008160009055506001016200014a565b5090565b600060028204905060018216806200018157607f821691505b602082108114156200019857620001976200019e565b5b50919050565b7f4e487b7100000000000000000000000000000000000000000000000000000000600052602260045260246000fd5b61296480620001dd6000396000f3fe608060405234801561001057600080fd5b50600436106100ea5760003560e01c80636352211e1161008c578063a22cb46511610066578063a22cb4651461026f578063b88d4fde1461028b578063c87b56dd146102a7578063e985e9c5146102d7576100ea565b80636352211e146101f157806370a082311461022157806395d89b4114610251576100ea565b8063095ea7b3116100c8578063095ea7b31461016d57806323b872dd1461018957806342842e0e146101a55780634a0706be146101c1576100ea565b806301ffc9a7146100ef57806306fdde031461011f578063081812fc1461013d575b600080fd5b61010960048036038101906101049190611b35565b610307565b6040516101169190611ef5565b60405180910390f35b6101276103e9565b6040516101349190611f10565b60405180910390f35b61015760048036038101906101529190611b87565b61047b565b6040516101649190611e8e565b60405180910390f35b61018760048036038101906101829190611af9565b610500565b005b6101a3600480360381019061019e9190611948565b610618565b005b6101bf60048036038101906101ba9190611948565b610678565b005b6101db60048036038101906101d69190611a4e565b610698565b6040516101e891906120f2565b60405180910390f35b61020b60048036038101906102069190611b87565b610751565b6040516102189190611e8e565b60405180910390f35b61023b600480360381019061023691906118e3565b610803565b60405161024891906120f2565b60405180910390f35b6102596108bb565b6040516102669190611f10565b60405180910390f35b61028960048036038101906102849190611a12565b61094d565b005b6102a560048036038101906102a09190611997565b610963565b005b6102c160048036038101906102bc9190611b87565b6109c5565b6040516102ce9190611f10565b60405180910390f35b6102f160048036038101906102ec919061190c565b610a6c565b6040516102fe9190611ef5565b60405180910390f35b60007f80ac58cd000000000000000000000000000000000000000000000000000000007bffffffffffffffffffffffffffffffffffffffffffffffffffffffff1916827bffffffffffffffffffffffffffffffffffffffffffffffffffffffff191614806103d257507f5b5e139f000000000000000000000000000000000000000000000000000000007bffffffffffffffffffffffffffffffffffffffffffffffffffffffff1916827bffffffffffffffffffffffffffffffffffffffffffffffffffffffff1916145b806103e257506103e182610b00565b5b9050919050565b6060600080546103f890612348565b80601f016020809104026020016040519081016040528092919081815260200182805461042490612348565b80156104715780601f1061044657610100808354040283529160200191610471565b820191906000526020600020905b81548152906001019060200180831161045457829003601f168201915b5050505050905090565b600061048682610b6a565b6104c5576040517f08c379a00000000000000000000000000000000000000000000000000000000081526004016104bc90612072565b60405180910390fd5b6004600083815260200190815260200160002060009054906101000a900473ffffffffffffffffffffffffffffffffffffffff169050919050565b600061050b82610751565b90508073ffffffffffffffffffffffffffffffffffffffff168373ffffffffffffffffffffffffffffffffffffffff16141561057c576040517f08c379a0000000000000000000000000000000000000000000000000000000008152600401610573906120b2565b60405180910390fd5b8073ffffffffffffffffffffffffffffffffffffffff1661059b610bd6565b73ffffffffffffffffffffffffffffffffffffffff1614806105ca57506105c9816105c4610bd6565b610a6c565b5b610609576040517f08c379a000000000000000000000000000000000000000000000000000000000815260040161060090611ff2565b60405180910390fd5b6106138383610bde565b505050565b610629610623610bd6565b82610c97565b610668576040517f08c379a000000000000000000000000000000000000000000000000000000000815260040161065f906120d2565b60405180910390fd5b610673838383610d75565b505050565b61069383838360405180602001604052806000815250610963565b505050565b60008060016006546106aa91906121d7565b9050806006819055506106bd8682610fdc565b604051806060016040528085815260200184815260200186815250600760008381526020019081526020016000206000820151816000019080519060200190610707929190611707565b506020820151816001019080519060200190610724929190611707565b506040820151816002019080519060200190610741929190611707565b5090505080915050949350505050565b6000806002600084815260200190815260200160002060009054906101000a900473ffffffffffffffffffffffffffffffffffffffff169050600073ffffffffffffffffffffffffffffffffffffffff168173ffffffffffffffffffffffffffffffffffffffff1614156107fa576040517f08c379a00000000000000000000000000000000000000000000000000000000081526004016107f190612032565b60405180910390fd5b80915050919050565b60008073ffffffffffffffffffffffffffffffffffffffff168273ffffffffffffffffffffffffffffffffffffffff161415610874576040517f08c379a000000000000000000000000000000000000000000000000000000000815260040161086b90612012565b60405180910390fd5b600360008373ffffffffffffffffffffffffffffffffffffffff1673ffffffffffffffffffffffffffffffffffffffff168152602001908152602001600020549050919050565b6060600180546108ca90612348565b80601f01602080910402602001604051908101604052809291908181526020018280546108f690612348565b80156109435780601f1061091857610100808354040283529160200191610943565b820191906000526020600020905b81548152906001019060200180831161092657829003601f168201915b5050505050905090565b61095f610958610bd6565b83836111b6565b5050565b61097461096e610bd6565b83610c97565b6109b3576040517f08c379a00000000000000000000000000000000000000000000000000000000081526004016109aa906120d2565b60405180910390fd5b6109bf84848484611323565b50505050565b60606109d082610b6a565b610a0f576040517f08c379a0000000000000000000000000000000000000000000000000000000008152600401610a0690612092565b60405180910390fd5b6000610a1961137f565b90506000815111610a395760405180602001604052806000815250610a64565b80610a4384611396565b604051602001610a54929190611e6a565b6040516020818303038152906040525b915050919050565b6000600560008473ffffffffffffffffffffffffffffffffffffffff1673ffffffffffffffffffffffffffffffffffffffff16815260200190815260200160002060008373ffffffffffffffffffffffffffffffffffffffff1673ffffffffffffffffffffffffffffffffffffffff16815260200190815260200160002060009054906101000a900460ff16905092915050565b60007f01ffc9a7000000000000000000000000000000000000000000000000000000007bffffffffffffffffffffffffffffffffffffffffffffffffffffffff1916827bffffffffffffffffffffffffffffffffffffffffffffffffffffffff1916149050919050565b60008073ffffffffffffffffffffffffffffffffffffffff166002600084815260200190815260200160002060009054906101000a900473ffffffffffffffffffffffffffffffffffffffff1673ffffffffffffffffffffffffffffffffffffffff1614159050919050565b600033905090565b816004600083815260200190815260200160002060006101000a81548173ffffffffffffffffffffffffffffffffffffffff021916908373ffffffffffffffffffffffffffffffffffffffff160217905550808273ffffffffffffffffffffffffffffffffffffffff16610c5183610751565b73ffffffffffffffffffffffffffffffffffffffff167f8c5be1e5ebec7d5bd14f71427d1e84f3dd0314c0f7b2291e5b200ac8c7c3b92560405160405180910390a45050565b6000610ca282610b6a565b610ce1576040517f08c379a0000000000000000000000000000000000000000000000000000000008152600401610cd890611fd2565b60405180910390fd5b6000610cec83610751565b90508073ffffffffffffffffffffffffffffffffffffffff168473ffffffffffffffffffffffffffffffffffffffff161480610d5b57508373ffffffffffffffffffffffffffffffffffffffff16610d438461047b565b73ffffffffffffffffffffffffffffffffffffffff16145b80610d6c5750610d6b8185610a6c565b5b91505092915050565b8273ffffffffffffffffffffffffffffffffffffffff16610d9582610751565b73ffffffffffffffffffffffffffffffffffffffff1614610deb576040517f08c379a0000000000000000000000000000000000000000000000000000000008152600401610de290611f52565b60405180910390fd5b600073ffffffffffffffffffffffffffffffffffffffff168273ffffffffffffffffffffffffffffffffffffffff161415610e5b576040517f08c379a0000000000000000000000000000000000000000000000000000000008152600401610e5290611f92565b60405180910390fd5b610e66838383611543565b610e71600082610bde565b6001600360008573ffffffffffffffffffffffffffffffffffffffff1673ffffffffffffffffffffffffffffffffffffffff1681526020019081526020016000206000828254610ec1919061225e565b925050819055506001600360008473ffffffffffffffffffffffffffffffffffffffff1673ffffffffffffffffffffffffffffffffffffffff1681526020019081526020016000206000828254610f1891906121d7565b92505081905550816002600083815260200190815260200160002060006101000a81548173ffffffffffffffffffffffffffffffffffffffff021916908373ffffffffffffffffffffffffffffffffffffffff160217905550808273ffffffffffffffffffffffffffffffffffffffff168473ffffffffffffffffffffffffffffffffffffffff167fddf252ad1be2c89b69c2b068fc378daa952ba7f163c4a11628f55a4df523b3ef60405160405180910390a4610fd7838383611548565b505050565b600073ffffffffffffffffffffffffffffffffffffffff168273ffffffffffffffffffffffffffffffffffffffff16141561104c576040517f08c379a000000000000000000000000000000000000000000000000000000000815260040161104390612052565b60405180910390fd5b61105581610b6a565b15611095576040517f08c379a000000000000000000000000000000000000000000000000000000000815260040161108c90611f72565b60405180910390fd5b6110a160008383611543565b6001600360008473ffffffffffffffffffffffffffffffffffffffff1673ffffffffffffffffffffffffffffffffffffffff16815260200190815260200160002060008282546110f191906121d7565b92505081905550816002600083815260200190815260200160002060006101000a81548173ffffffffffffffffffffffffffffffffffffffff021916908373ffffffffffffffffffffffffffffffffffffffff160217905550808273ffffffffffffffffffffffffffffffffffffffff16600073ffffffffffffffffffffffffffffffffffffffff167fddf252ad1be2c89b69c2b068fc378daa952ba7f163c4a11628f55a4df523b3ef60405160405180910390a46111b260008383611548565b5050565b8173ffffffffffffffffffffffffffffffffffffffff168373ffffffffffffffffffffffffffffffffffffffff161415611225576040517f08c379a000000000000000000000000000000000000000000000000000000000815260040161121c90611fb2565b60405180910390fd5b80600560008573ffffffffffffffffffffffffffffffffffffffff1673ffffffffffffffffffffffffffffffffffffffff16815260200190815260200160002060008473ffffffffffffffffffffffffffffffffffffffff1673ffffffffffffffffffffffffffffffffffffffff16815260200190815260200160002060006101000a81548160ff0219169083151502179055508173ffffffffffffffffffffffffffffffffffffffff168373ffffffffffffffffffffffffffffffffffffffff167f17307eab39ab6107e8899845ad3d59bd9653f200f220920489ca2b5937696c31836040516113169190611ef5565b60405180910390a3505050565b61132e848484610d75565b61133a8484848461154d565b611379576040517f08c379a000000000000000000000000000000000000000000000000000000000815260040161137090611f32565b60405180910390fd5b50505050565b606060405180602001604052806000815250905090565b606060008214156113de576040518060400160405280600181526020017f3000000000000000000000000000000000000000000000000000000000000000815250905061153e565b600082905060005b600082146114105780806113f9906123ab565b915050600a82611409919061222d565b91506113e6565b60008167ffffffffffffffff811115611452577f4e487b7100000000000000000000000000000000000000000000000000000000600052604160045260246000fd5b6040519080825280601f01601f1916602001820160405280156114845781602001600182028036833780820191505090505b5090505b600085146115375760018261149d919061225e565b9150600a856114ac91906123f4565b60306114b891906121d7565b60f81b8183815181106114f4577f4e487b7100000000000000000000000000000000000000000000000000000000600052603260045260246000fd5b60200101907effffffffffffffffffffffffffffffffffffffffffffffffffffffffffffff1916908160001a905350600a85611530919061222d565b9450611488565b8093505050505b919050565b505050565b505050565b600061156e8473ffffffffffffffffffffffffffffffffffffffff166116e4565b156116d7578373ffffffffffffffffffffffffffffffffffffffff1663150b7a02611597610bd6565b8786866040518563ffffffff1660e01b81526004016115b99493929190611ea9565b602060405180830381600087803b1580156115d357600080fd5b505af192505050801561160457506040513d601f19601f820116820180604052508101906116019190611b5e565b60015b611687573d8060008114611634576040519150601f19603f3d011682016040523d82523d6000602084013e611639565b606091505b5060008151141561167f576040517f08c379a000000000000000000000000000000000000000000000000000000000815260040161167690611f32565b60405180910390fd5b805181602001fd5b63150b7a0260e01b7bffffffffffffffffffffffffffffffffffffffffffffffffffffffff1916817bffffffffffffffffffffffffffffffffffffffffffffffffffffffff1916149150506116dc565b600190505b949350505050565b6000808273ffffffffffffffffffffffffffffffffffffffff163b119050919050565b82805461171390612348565b90600052602060002090601f016020900481019282611735576000855561177c565b82601f1061174e57805160ff191683800117855561177c565b8280016001018555821561177c579182015b8281111561177b578251825591602001919060010190611760565b5b509050611789919061178d565b5090565b5b808211156117a657600081600090555060010161178e565b5090565b60006117bd6117b884612132565b61210d565b9050828152602081018484840111156117d557600080fd5b6117e0848285612306565b509392505050565b60006117fb6117f684612163565b61210d565b90508281526020810184848401111561181357600080fd5b61181e848285612306565b509392505050565b600081359050611835816128d2565b92915050565b60008135905061184a816128e9565b92915050565b60008135905061185f81612900565b92915050565b60008151905061187481612900565b92915050565b600082601f83011261188b57600080fd5b813561189b8482602086016117aa565b91505092915050565b600082601f8301126118b557600080fd5b81356118c58482602086016117e8565b91505092915050565b6000813590506118dd81612917565b92915050565b6000602082840312156118f557600080fd5b600061190384828501611826565b91505092915050565b6000806040838503121561191f57600080fd5b600061192d85828601611826565b925050602061193e85828601611826565b9150509250929050565b60008060006060848603121561195d57600080fd5b600061196b86828701611826565b935050602061197c86828701611826565b925050604061198d868287016118ce565b9150509250925092565b600080600080608085870312156119ad57600080fd5b60006119bb87828801611826565b94505060206119cc87828801611826565b93505060406119dd878288016118ce565b925050606085013567ffffffffffffffff8111156119fa57600080fd5b611a068782880161187a565b91505092959194509250565b60008060408385031215611a2557600080fd5b6000611a3385828601611826565b9250506020611a448582860161183b565b9150509250929050565b60008060008060808587031215611a6457600080fd5b6000611a7287828801611826565b945050602085013567ffffffffffffffff811115611a8f57600080fd5b611a9b878288016118a4565b935050604085013567ffffffffffffffff811115611ab857600080fd5b611ac4878288016118a4565b925050606085013567ffffffffffffffff811115611ae157600080fd5b611aed878288016118a4565b91505092959194509250565b60008060408385031215611b0c57600080fd5b6000611b1a85828601611826565b9250506020611b2b858286016118ce565b9150509250929050565b600060208284031215611b4757600080fd5b6000611b5584828501611850565b91505092915050565b600060208284031215611b7057600080fd5b6000611b7e84828501611865565b91505092915050565b600060208284031215611b9957600080fd5b6000611ba7848285016118ce565b91505092915050565b611bb981612292565b82525050565b611bc8816122a4565b82525050565b6000611bd982612194565b611be381856121aa565b9350611bf3818560208601612315565b611bfc816124e1565b840191505092915050565b6000611c128261219f565b611c1c81856121bb565b9350611c2c818560208601612315565b611c35816124e1565b840191505092915050565b6000611c4b8261219f565b611c5581856121cc565b9350611c65818560208601612315565b80840191505092915050565b6000611c7e6032836121bb565b9150611c89826124f2565b604082019050919050565b6000611ca16025836121bb565b9150611cac82612541565b604082019050919050565b6000611cc4601c836121bb565b9150611ccf82612590565b602082019050919050565b6000611ce76024836121bb565b9150611cf2826125b9565b604082019050919050565b6000611d0a6019836121bb565b9150611d1582612608565b602082019050919050565b6000611d2d602c836121bb565b9150611d3882612631565b604082019050919050565b6000611d506038836121bb565b9150611d5b82612680565b604082019050919050565b6000611d73602a836121bb565b9150611d7e826126cf565b604082019050919050565b6000611d966029836121bb565b9150611da18261271e565b604082019050919050565b6000611db96020836121bb565b9150611dc48261276d565b602082019050919050565b6000611ddc602c836121bb565b9150611de782612796565b604082019050919050565b6000611dff602f836121bb565b9150611e0a826127e5565b604082019050919050565b6000611e226021836121bb565b9150611e2d82612834565b604082019050919050565b6000611e456031836121bb565b9150611e5082612883565b604082019050919050565b611e64816122fc565b82525050565b6000611e768285611c40565b9150611e828284611c40565b91508190509392505050565b6000602082019050611ea36000830184611bb0565b92915050565b6000608082019050611ebe6000830187611bb0565b611ecb6020830186611bb0565b611ed86040830185611e5b565b8181036060830152611eea8184611bce565b905095945050505050565b6000602082019050611f0a6000830184611bbf565b92915050565b60006020820190508181036000830152611f2a8184611c07565b905092915050565b60006020820190508181036000830152611f4b81611c71565b9050919050565b60006020820190508181036000830152611f6b81611c94565b9050919050565b60006020820190508181036000830152611f8b81611cb7565b9050919050565b60006020820190508181036000830152611fab81611cda565b9050919050565b60006020820190508181036000830152611fcb81611cfd565b9050919050565b60006020820190508181036000830152611feb81611d20565b9050919050565b6000602082019050818103600083015261200b81611d43565b9050919050565b6000602082019050818103600083015261202b81611d66565b9050919050565b6000602082019050818103600083015261204b81611d89565b9050919050565b6000602082019050818103600083015261206b81611dac565b9050919050565b6000602082019050818103600083015261208b81611dcf565b9050919050565b600060208201905081810360008301526120ab81611df2565b9050919050565b600060208201905081810360008301526120cb81611e15565b9050919050565b600060208201905081810360008301526120eb81611e38565b9050919050565b60006020820190506121076000830184611e5b565b92915050565b6000612117612128565b9050612123828261237a565b919050565b6000604051905090565b600067ffffffffffffffff82111561214d5761214c6124b2565b5b612156826124e1565b9050602081019050919050565b600067ffffffffffffffff82111561217e5761217d6124b2565b5b612187826124e1565b9050602081019050919050565b600081519050919050565b600081519050919050565b600082825260208201905092915050565b600082825260208201905092915050565b600081905092915050565b60006121e2826122fc565b91506121ed836122fc565b9250827fffffffffffffffffffffffffffffffffffffffffffffffffffffffffffffffff0382111561222257612221612425565b5b828201905092915050565b6000612238826122fc565b9150612243836122fc565b92508261225357612252612454565b5b828204905092915050565b6000612269826122fc565b9150612274836122fc565b92508282101561228757612286612425565b5b828203905092915050565b600061229d826122dc565b9050919050565b60008115159050919050565b60007fffffffff0000000000000000000000000000000000000000000000000000000082169050919050565b600073ffffffffffffffffffffffffffffffffffffffff82169050919050565b6000819050919050565b82818337600083830152505050565b60005b83811015612333578082015181840152602081019050612318565b83811115612342576000848401525b50505050565b6000600282049050600182168061236057607f821691505b6020821081141561237457612373612483565b5b50919050565b612383826124e1565b810181811067ffffffffffffffff821117156123a2576123a16124b2565b5b80604052505050565b60006123b6826122fc565b91507fffffffffffffffffffffffffffffffffffffffffffffffffffffffffffffffff8214156123e9576123e8612425565b5b600182019050919050565b60006123ff826122fc565b915061240a836122fc565b92508261241a57612419612454565b5b828206905092915050565b7f4e487b7100000000000000000000000000000000000000000000000000000000600052601160045260246000fd5b7f4e487b7100000000000000000000000000000000000000000000000000000000600052601260045260246000fd5b7f4e487b7100000000000000000000000000000000000000000000000000000000600052602260045260246000fd5b7f4e487b7100000000000000000000000000000000000000000000000000000000600052604160045260246000fd5b6000601f19601f8301169050919050565b7f4552433732313a207472616e7366657220746f206e6f6e20455243373231526560008201527f63656976657220696d706c656d656e7465720000000000000000000000000000602082015250565b7f4552433732313a207472616e736665722066726f6d20696e636f72726563742060008201527f6f776e6572000000000000000000000000000000000000000000000000000000602082015250565b7f4552433732313a20746f6b656e20616c7265616479206d696e74656400000000600082015250565b7f4552433732313a207472616e7366657220746f20746865207a65726f2061646460008201527f7265737300000000000000000000000000000000000000000000000000000000602082015250565b7f4552433732313a20617070726f766520746f2063616c6c657200000000000000600082015250565b7f4552433732313a206f70657261746f7220717565727920666f72206e6f6e657860008201527f697374656e7420746f6b656e0000000000000000000000000000000000000000602082015250565b7f4552433732313a20617070726f76652063616c6c6572206973206e6f74206f7760008201527f6e6572206e6f7220617070726f76656420666f7220616c6c0000000000000000602082015250565b7f4552433732313a2062616c616e636520717565727920666f7220746865207a6560008201527f726f206164647265737300000000000000000000000000000000000000000000602082015250565b7f4552433732313a206f776e657220717565727920666f72206e6f6e657869737460008201527f656e7420746f6b656e0000000000000000000000000000000000000000000000602082015250565b7f4552433732313a206d696e7420746f20746865207a65726f2061646472657373600082015250565b7f4552433732313a20617070726f76656420717565727920666f72206e6f6e657860008201527f697374656e7420746f6b656e0000000000000000000000000000000000000000602082015250565b7f4552433732314d657461646174613a2055524920717565727920666f72206e6f60008201527f6e6578697374656e7420746f6b656e0000000000000000000000000000000000602082015250565b7f4552433732313a20617070726f76616c20746f2063757272656e74206f776e6560008201527f7200000000000000000000000000000000000000000000000000000000000000602082015250565b7f4552433732313a207472616e736665722063616c6c6572206973206e6f74206f60008201527f776e6572206e6f7220617070726f766564000000000000000000000000000000602082015250565b6128db81612292565b81146128e657600080fd5b50565b6128f2816122a4565b81146128fd57600080fd5b50565b612909816122b0565b811461291457600080fd5b50565b612920816122fc565b811461292b57600080fd5b5056fea26469706673582212201a3e249a01fc43a53015a33839560c961c7ef5c9584d8feb2bd8a247f9df79d664736f6c63430008010033",
  "linkReferences": {},
  "deployedLinkReferences": {}
}