{
  "_format": "hh-sol-artifact-1",
  "contractName": "PunkToken",
  "sourceName": "contracts/PunkToken.sol",
  "abi": [
    {
      "inputs": [],
      "stateMutability": "nonpayable",
      "type": "constructor"
    },
    {
      "anonymous": false,
      "inputs": [
        {
          "indexed": true,
          "internalType": "address",
          "name": "owner",
          "type": "address"
        },
        {
          "indexed": true,
          "internalType": "address",
          "name": "spender",
          "type": "address"
        },
        {
          "indexed": false,
          "internalType": "uint256",
          "name": "value",
          "type": "uint256"
        }
      ],
      "name": "Approval",
      "type": "event"
    },
    {
      "anonymous": false,
      "inputs": [
        {
          "indexed": true,
          "internalType": "address",
          "name": "from",
          "type": "address"
        },
        {
          "indexed": true,
          "internalType": "address",
          "name": "to",
          "type": "address"
        },
        {
          "indexed": false,
          "internalType": "uint256",
          "name": "value",
          "type": "uint256"
        }
      ],
      "name": "Transfer",
      "type": "event"
    },
    {
      "inputs": [
        {
          "internalType": "address",
          "name": "owner",
          "type": "address"
        },
        {
          "internalType": "address",
          "name": "spender",
          "type": "address"
        }
      ],
      "name": "allowance",
      "outputs": [
        {
          "internalType": "uint256",
          "name": "",
          "type": "uint256"
        }
      ],
      "stateMutability": "view",
      "type": "function"
    },
    {
      "inputs": [
        {
          "internalType": "address",
          "name": "spender",
          "type": "address"
        },
        {
          "internalType": "uint256",
          "name": "amount",
          "type": "uint256"
        }
      ],
      "name": "approve",
      "outputs": [
        {
          "internalType": "bool",
          "name": "",
          "type": "bool"
        }
      ],
      "stateMutability": "nonpayable",
      "type": "function"
    },
    {
      "inputs": [
        {
          "internalType": "address",
          "name": "account",
          "type": "address"
        }
      ],
      "name": "balanceOf",
      "outputs": [
        {
          "internalType": "uint256",
          "name": "",
          "type": "uint256"
        }
      ],
      "stateMutability": "view",
      "type": "function"
    },
    {
      "inputs": [
        {
          "internalType": "address",
          "name": "receiver",
          "type": "address"
        }
      ],
      "name": "buyToken",
      "outputs": [],
      "stateMutability": "payable",
      "type": "function"
    },
    {
      "inputs": [],
      "name": "decimals",
      "outputs": [
        {
          "internalType": "uint8",
          "name": "",
          "type": "uint8"
        }
      ],
      "stateMutability": "view",
      "type": "function"
    },
    {
      "inputs": [
        {
          "internalType": "address",
          "name": "spender",
          "type": "address"
        },
        {
          "internalType": "uint256",
          "name": "subtractedValue",
          "type": "uint256"
        }
      ],
      "name": "decreaseAllowance",
      "outputs": [
        {
          "internalType": "bool",
          "name": "",
          "type": "bool"
        }
      ],
      "stateMutability": "nonpayable",
      "type": "function"
    },
    {
      "inputs": [
        {
          "internalType": "address",
          "name": "spender",
          "type": "address"
        },
        {
          "internalType": "uint256",
          "name": "addedValue",
          "type": "uint256"
        }
      ],
      "name": "increaseAllowance",
      "outputs": [
        {
          "internalType": "bool",
          "name": "",
          "type": "bool"
        }
      ],
      "stateMutability": "nonpayable",
      "type": "function"
    },
    {
      "inputs": [],
      "name": "name",
      "outputs": [
        {
          "internalType": "string",
          "name": "",
          "type": "string"
        }
      ],
      "stateMutability": "view",
      "type": "function"
    },
    {
      "inputs": [],
      "name": "symbol",
      "outputs": [
        {
          "internalType": "string",
          "name": "",
          "type": "string"
        }
      ],
      "stateMutability": "view",
      "type": "function"
    },
    {
      "inputs": [],
      "name": "totalSupply",
      "outputs": [
        {
          "internalType": "uint256",
          "name": "",
          "type": "uint256"
        }
      ],
      "stateMutability": "view",
      "type": "function"
    },
    {
      "inputs": [
        {
          "internalType": "address",
          "name": "to",
          "type": "address"
        },
        {
          "internalType": "uint256",
          "name": "amount",
          "type": "uint256"
        }
      ],
      "name": "transfer",
      "outputs": [
        {
          "internalType": "bool",
          "name": "",
          "type": "bool"
        }
      ],
      "stateMutability": "nonpayable",
      "type": "function"
    },
    {
      "inputs": [
        {
          "internalType": "address",
          "name": "from",
          "type": "address"
        },
        {
          "internalType": "address",
          "name": "to",
          "type": "address"
        },
        {
          "internalType": "uint256",
          "name": "amount",
          "type": "uint256"
        }
      ],
      "name": "transferFrom",
      "outputs": [
        {
          "internalType": "bool",
          "name": "",
          "type": "bool"
        }
      ],
      "stateMutability": "nonpayable",
      "type": "function"
    }
  ],
  "bytecode": "0x60806040523480156200001157600080fd5b506040518060400160405280600a81526020017f50756e6b20546f6b656e000000000000000000000000000000000000000000008152506040518060400160405280600381526020017f504b54000000000000000000000000000000000000000000000000000000000081525081600390805190602001906200009692919062000281565b508060049080519060200190620000af92919062000281565b505050620000ef33620000c7620000f560201b60201c565b6006620000d5919062000431565b600a620000e39190620004ca565b620000fe60201b60201c565b620006bf565b60006012905090565b600073ffffffffffffffffffffffffffffffffffffffff168273ffffffffffffffffffffffffffffffffffffffff16141562000171576040517f08c379a0000000000000000000000000000000000000000000000000000000008152600401620001689062000384565b60405180910390fd5b62000185600083836200027760201b60201c565b8060026000828254620001999190620003d4565b92505081905550806000808473ffffffffffffffffffffffffffffffffffffffff1673ffffffffffffffffffffffffffffffffffffffff1681526020019081526020016000206000828254620001f09190620003d4565b925050819055508173ffffffffffffffffffffffffffffffffffffffff16600073ffffffffffffffffffffffffffffffffffffffff167fddf252ad1be2c89b69c2b068fc378daa952ba7f163c4a11628f55a4df523b3ef83604051620002579190620003a6565b60405180910390a362000273600083836200027c60201b60201c565b5050565b505050565b505050565b8280546200028f906200061e565b90600052602060002090601f016020900481019282620002b35760008555620002ff565b82601f10620002ce57805160ff1916838001178555620002ff565b82800160010185558215620002ff579182015b82811115620002fe578251825591602001919060010190620002e1565b5b5090506200030e919062000312565b5090565b5b808211156200032d57600081600090555060010162000313565b5090565b600062000340601f83620003c3565b91507f45524332303a206d696e7420746f20746865207a65726f2061646472657373006000830152602082019050919050565b6200037e8162000607565b82525050565b600060208201905081810360008301526200039f8162000331565b9050919050565b6000602082019050620003bd600083018462000373565b92915050565b600082825260208201905092915050565b6000620003e18262000607565b9150620003ee8362000607565b9250827fffffffffffffffffffffffffffffffffffffffffffffffffffffffffffffffff0382111562000426576200042562000654565b5b828201905092915050565b60006200043e8262000611565b91506200044b8362000611565b92508260ff0382111562000464576200046362000654565b5b828201905092915050565b6000808291508390505b6001851115620004c15780860481111562000499576200049862000654565b5b6001851615620004a95780820291505b8081029050620004b985620006b2565b945062000479565b94509492505050565b6000620004d78262000607565b9150620004e48362000611565b9250620005137fffffffffffffffffffffffffffffffffffffffffffffffffffffffffffffffff84846200051b565b905092915050565b6000826200052d576001905062000600565b816200053d576000905062000600565b8160018114620005565760028114620005615762000597565b600191505062000600565b60ff84111562000576576200057562000654565b5b8360020a91508482111562000590576200058f62000654565b5b5062000600565b5060208310610133831016604e8410600b8410161715620005d15782820a905083811115620005cb57620005ca62000654565b5b62000600565b620005e084848460016200046f565b92509050818404811115620005fa57620005f962000654565b5b81810290505b9392505050565b6000819050919050565b600060ff82169050919050565b600060028204905060018216806200063757607f821691505b602082108114156200064e576200064d62000683565b5b50919050565b7f4e487b7100000000000000000000000000000000000000000000000000000000600052601160045260246000fd5b7f4e487b7100000000000000000000000000000000000000000000000000000000600052602260045260246000fd5b60008160011c9050919050565b61169780620006cf6000396000f3fe6080604052600436106100a75760003560e01c806370a082311161006457806370a08231146101e45780637e72fb521461022157806395d89b411461023d578063a457c2d714610268578063a9059cbb146102a5578063dd62ed3e146102e2576100a7565b806306fdde03146100ac578063095ea7b3146100d757806318160ddd1461011457806323b872dd1461013f578063313ce5671461017c57806339509351146101a7575b600080fd5b3480156100b857600080fd5b506100c161031f565b6040516100ce91906112c0565b60405180910390f35b3480156100e357600080fd5b506100fe60048036038101906100f99190610eb9565b6103b1565b60405161010b91906112a5565b60405180910390f35b34801561012057600080fd5b506101296103d4565b6040516101369190611402565b60405180910390f35b34801561014b57600080fd5b5061016660048036038101906101619190610e6a565b6103de565b60405161017391906112a5565b60405180910390f35b34801561018857600080fd5b5061019161040d565b60405161019e919061141d565b60405180910390f35b3480156101b357600080fd5b506101ce60048036038101906101c99190610eb9565b610416565b6040516101db91906112a5565b60405180910390f35b3480156101f057600080fd5b5061020b60048036038101906102069190610e05565b6104c0565b6040516102189190611402565b60405180910390f35b61023b60048036038101906102369190610e05565b610508565b005b34801561024957600080fd5b5061025261056b565b60405161025f91906112c0565b60405180910390f35b34801561027457600080fd5b5061028f600480360381019061028a9190610eb9565b6105fd565b60405161029c91906112a5565b60405180910390f35b3480156102b157600080fd5b506102cc60048036038101906102c79190610eb9565b6106e7565b6040516102d991906112a5565b60405180910390f35b3480156102ee57600080fd5b5061030960048036038101906103049190610e2e565b61070a565b6040516103169190611402565b60405180910390f35b60606003805461032e90611563565b80601f016020809104026020016040519081016040528092919081815260200182805461035a90611563565b80156103a75780601f1061037c576101008083540402835291602001916103a7565b820191906000526020600020905b81548152906001019060200180831161038a57829003601f168201915b5050505050905090565b6000806103bc610791565b90506103c9818585610799565b600191505092915050565b6000600254905090565b6000806103e9610791565b90506103f6858285610964565b6104018585856109f0565b60019150509392505050565b60006012905090565b600080610421610791565b90506104b5818585600160008673ffffffffffffffffffffffffffffffffffffffff1673ffffffffffffffffffffffffffffffffffffffff16815260200190815260200160002060008973ffffffffffffffffffffffffffffffffffffffff1673ffffffffffffffffffffffffffffffffffffffff168152602001908152602001600020546104b09190611454565b610799565b600191505092915050565b60008060008373ffffffffffffffffffffffffffffffffffffffff1673ffffffffffffffffffffffffffffffffffffffff168152602001908152602001600020549050919050565b6000341161054b576040517f08c379a000000000000000000000000000000000000000000000000000000000815260040161054290611362565b60405180910390fd5b60006103e83461055b91906114aa565b90506105678282610c71565b5050565b60606004805461057a90611563565b80601f01602080910402602001604051908101604052809291908181526020018280546105a690611563565b80156105f35780601f106105c8576101008083540402835291602001916105f3565b820191906000526020600020905b8154815290600101906020018083116105d657829003601f168201915b5050505050905090565b600080610608610791565b90506000600160008373ffffffffffffffffffffffffffffffffffffffff1673ffffffffffffffffffffffffffffffffffffffff16815260200190815260200160002060008673ffffffffffffffffffffffffffffffffffffffff1673ffffffffffffffffffffffffffffffffffffffff168152602001908152602001600020549050838110156106ce576040517f08c379a00000000000000000000000000000000000000000000000000000000081526004016106c5906113c2565b60405180910390fd5b6106db8286868403610799565b60019250505092915050565b6000806106f2610791565b90506106ff8185856109f0565b600191505092915050565b6000600160008473ffffffffffffffffffffffffffffffffffffffff1673ffffffffffffffffffffffffffffffffffffffff16815260200190815260200160002060008373ffffffffffffffffffffffffffffffffffffffff1673ffffffffffffffffffffffffffffffffffffffff16815260200190815260200160002054905092915050565b600033905090565b600073ffffffffffffffffffffffffffffffffffffffff168373ffffffffffffffffffffffffffffffffffffffff161415610809576040517f08c379a0000000000000000000000000000000000000000000000000000000008152600401610800906113a2565b60405180910390fd5b600073ffffffffffffffffffffffffffffffffffffffff168273ffffffffffffffffffffffffffffffffffffffff161415610879576040517f08c379a000000000000000000000000000000000000000000000000000000000815260040161087090611302565b60405180910390fd5b80600160008573ffffffffffffffffffffffffffffffffffffffff1673ffffffffffffffffffffffffffffffffffffffff16815260200190815260200160002060008473ffffffffffffffffffffffffffffffffffffffff1673ffffffffffffffffffffffffffffffffffffffff168152602001908152602001600020819055508173ffffffffffffffffffffffffffffffffffffffff168373ffffffffffffffffffffffffffffffffffffffff167f8c5be1e5ebec7d5bd14f71427d1e84f3dd0314c0f7b2291e5b200ac8c7c3b925836040516109579190611402565b60405180910390a3505050565b6000610970848461070a565b90507fffffffffffffffffffffffffffffffffffffffffffffffffffffffffffffffff81146109ea57818110156109dc576040517f08c379a00000000000000000000000000000000000000000000000000000000081526004016109d390611322565b60405180910390fd5b6109e98484848403610799565b5b50505050565b600073ffffffffffffffffffffffffffffffffffffffff168373ffffffffffffffffffffffffffffffffffffffff161415610a60576040517f08c379a0000000000000000000000000000000000000000000000000000000008152600401610a5790611382565b60405180910390fd5b600073ffffffffffffffffffffffffffffffffffffffff168273ffffffffffffffffffffffffffffffffffffffff161415610ad0576040517f08c379a0000000000000000000000000000000000000000000000000000000008152600401610ac7906112e2565b60405180910390fd5b610adb838383610dd1565b60008060008573ffffffffffffffffffffffffffffffffffffffff1673ffffffffffffffffffffffffffffffffffffffff16815260200190815260200160002054905081811015610b61576040517f08c379a0000000000000000000000000000000000000000000000000000000008152600401610b5890611342565b60405180910390fd5b8181036000808673ffffffffffffffffffffffffffffffffffffffff1673ffffffffffffffffffffffffffffffffffffffff16815260200190815260200160002081905550816000808573ffffffffffffffffffffffffffffffffffffffff1673ffffffffffffffffffffffffffffffffffffffff1681526020019081526020016000206000828254610bf49190611454565b925050819055508273ffffffffffffffffffffffffffffffffffffffff168473ffffffffffffffffffffffffffffffffffffffff167fddf252ad1be2c89b69c2b068fc378daa952ba7f163c4a11628f55a4df523b3ef84604051610c589190611402565b60405180910390a3610c6b848484610dd6565b50505050565b600073ffffffffffffffffffffffffffffffffffffffff168273ffffffffffffffffffffffffffffffffffffffff161415610ce1576040517f08c379a0000000000000000000000000000000000000000000000000000000008152600401610cd8906113e2565b60405180910390fd5b610ced60008383610dd1565b8060026000828254610cff9190611454565b92505081905550806000808473ffffffffffffffffffffffffffffffffffffffff1673ffffffffffffffffffffffffffffffffffffffff1681526020019081526020016000206000828254610d549190611454565b925050819055508173ffffffffffffffffffffffffffffffffffffffff16600073ffffffffffffffffffffffffffffffffffffffff167fddf252ad1be2c89b69c2b068fc378daa952ba7f163c4a11628f55a4df523b3ef83604051610db99190611402565b60405180910390a3610dcd60008383610dd6565b5050565b505050565b505050565b600081359050610dea81611633565b92915050565b600081359050610dff8161164a565b92915050565b600060208284031215610e1757600080fd5b6000610e2584828501610ddb565b91505092915050565b60008060408385031215610e4157600080fd5b6000610e4f85828601610ddb565b9250506020610e6085828601610ddb565b9150509250929050565b600080600060608486031215610e7f57600080fd5b6000610e8d86828701610ddb565b9350506020610e9e86828701610ddb565b9250506040610eaf86828701610df0565b9150509250925092565b60008060408385031215610ecc57600080fd5b6000610eda85828601610ddb565b9250506020610eeb85828601610df0565b9150509250929050565b610efe816114ed565b82525050565b6000610f0f82611438565b610f198185611443565b9350610f29818560208601611530565b610f3281611622565b840191505092915050565b6000610f4a602383611443565b91507f45524332303a207472616e7366657220746f20746865207a65726f206164647260008301527f65737300000000000000000000000000000000000000000000000000000000006020830152604082019050919050565b6000610fb0602283611443565b91507f45524332303a20617070726f766520746f20746865207a65726f20616464726560008301527f73730000000000000000000000000000000000000000000000000000000000006020830152604082019050919050565b6000611016601d83611443565b91507f45524332303a20696e73756666696369656e7420616c6c6f77616e63650000006000830152602082019050919050565b6000611056602683611443565b91507f45524332303a207472616e7366657220616d6f756e742065786365656473206260008301527f616c616e636500000000000000000000000000000000000000000000000000006020830152604082019050919050565b60006110bc602283611443565b91507f41637475616c20657468657220616d6f756e742069732072657175697265642160008301527f21210000000000000000000000000000000000000000000000000000000000006020830152604082019050919050565b6000611122602583611443565b91507f45524332303a207472616e736665722066726f6d20746865207a65726f20616460008301527f64726573730000000000000000000000000000000000000000000000000000006020830152604082019050919050565b6000611188602483611443565b91507f45524332303a20617070726f76652066726f6d20746865207a65726f2061646460008301527f72657373000000000000000000000000000000000000000000000000000000006020830152604082019050919050565b60006111ee602583611443565b91507f45524332303a2064656372656173656420616c6c6f77616e63652062656c6f7760008301527f207a65726f0000000000000000000000000000000000000000000000000000006020830152604082019050919050565b6000611254601f83611443565b91507f45524332303a206d696e7420746f20746865207a65726f2061646472657373006000830152602082019050919050565b61129081611519565b82525050565b61129f81611523565b82525050565b60006020820190506112ba6000830184610ef5565b92915050565b600060208201905081810360008301526112da8184610f04565b905092915050565b600060208201905081810360008301526112fb81610f3d565b9050919050565b6000602082019050818103600083015261131b81610fa3565b9050919050565b6000602082019050818103600083015261133b81611009565b9050919050565b6000602082019050818103600083015261135b81611049565b9050919050565b6000602082019050818103600083015261137b816110af565b9050919050565b6000602082019050818103600083015261139b81611115565b9050919050565b600060208201905081810360008301526113bb8161117b565b9050919050565b600060208201905081810360008301526113db816111e1565b9050919050565b600060208201905081810360008301526113fb81611247565b9050919050565b60006020820190506114176000830184611287565b92915050565b60006020820190506114326000830184611296565b92915050565b600081519050919050565b600082825260208201905092915050565b600061145f82611519565b915061146a83611519565b9250827fffffffffffffffffffffffffffffffffffffffffffffffffffffffffffffffff0382111561149f5761149e611595565b5b828201905092915050565b60006114b582611519565b91506114c083611519565b9250826114d0576114cf6115c4565b5b828204905092915050565b60006114e6826114f9565b9050919050565b60008115159050919050565b600073ffffffffffffffffffffffffffffffffffffffff82169050919050565b6000819050919050565b600060ff82169050919050565b60005b8381101561154e578082015181840152602081019050611533565b8381111561155d576000848401525b50505050565b6000600282049050600182168061157b57607f821691505b6020821081141561158f5761158e6115f3565b5b50919050565b7f4e487b7100000000000000000000000000000000000000000000000000000000600052601160045260246000fd5b7f4e487b7100000000000000000000000000000000000000000000000000000000600052601260045260246000fd5b7f4e487b7100000000000000000000000000000000000000000000000000000000600052602260045260246000fd5b6000601f19601f8301169050919050565b61163c816114db565b811461164757600080fd5b50565b61165381611519565b811461165e57600080fd5b5056fea264697066735822122082e3b36be0bba2e4eeb6d02abb84e8cce670c2d4d0af2926d62adfa2af0fa90e64736f6c63430008000033",
  "linkReferences": {},
  "deployedLinkReferences": {}
}