{
  "_format": "hh-sol-artifact-1",
  "contractName": "PunkToken",
  "sourceName": "contracts/PunkToken.sol",
  "abi": [
    {
      "inputs": [],
      "stateMutability": "nonpayable",
      "type": "constructor"
    },
    {
      "anonymous": false,
      "inputs": [
        {
          "indexed": true,
          "internalType": "address",
          "name": "owner",
          "type": "address"
        },
        {
          "indexed": true,
          "internalType": "address",
          "name": "spender",
          "type": "address"
        },
        {
          "indexed": false,
          "internalType": "uint256",
          "name": "value",
          "type": "uint256"
        }
      ],
      "name": "Approval",
      "type": "event"
    },
    {
      "anonymous": false,
      "inputs": [
        {
          "indexed": true,
          "internalType": "address",
          "name": "from",
          "type": "address"
        },
        {
          "indexed": true,
          "internalType": "address",
          "name": "to",
          "type": "address"
        },
        {
          "indexed": false,
          "internalType": "uint256",
          "name": "value",
          "type": "uint256"
        }
      ],
      "name": "Transfer",
      "type": "event"
    },
    {
      "inputs": [
        {
          "internalType": "address",
          "name": "owner",
          "type": "address"
        },
        {
          "internalType": "address",
          "name": "spender",
          "type": "address"
        }
      ],
      "name": "allowance",
      "outputs": [
        {
          "internalType": "uint256",
          "name": "",
          "type": "uint256"
        }
      ],
      "stateMutability": "view",
      "type": "function"
    },
    {
      "inputs": [
        {
          "internalType": "address",
          "name": "spender",
          "type": "address"
        },
        {
          "internalType": "uint256",
          "name": "amount",
          "type": "uint256"
        }
      ],
      "name": "approve",
      "outputs": [
        {
          "internalType": "bool",
          "name": "",
          "type": "bool"
        }
      ],
      "stateMutability": "nonpayable",
      "type": "function"
    },
    {
      "inputs": [
        {
          "internalType": "address",
          "name": "account",
          "type": "address"
        }
      ],
      "name": "balanceOf",
      "outputs": [
        {
          "internalType": "uint256",
          "name": "",
          "type": "uint256"
        }
      ],
      "stateMutability": "view",
      "type": "function"
    },
    {
      "inputs": [
        {
          "internalType": "address",
          "name": "receiver",
          "type": "address"
        }
      ],
      "name": "buyToken",
      "outputs": [],
      "stateMutability": "payable",
      "type": "function"
    },
    {
      "inputs": [],
      "name": "decimals",
      "outputs": [
        {
          "internalType": "uint8",
          "name": "",
          "type": "uint8"
        }
      ],
      "stateMutability": "view",
      "type": "function"
    },
    {
      "inputs": [
        {
          "internalType": "address",
          "name": "spender",
          "type": "address"
        },
        {
          "internalType": "uint256",
          "name": "subtractedValue",
          "type": "uint256"
        }
      ],
      "name": "decreaseAllowance",
      "outputs": [
        {
          "internalType": "bool",
          "name": "",
          "type": "bool"
        }
      ],
      "stateMutability": "nonpayable",
      "type": "function"
    },
    {
      "inputs": [
        {
          "internalType": "address",
          "name": "spender",
          "type": "address"
        },
        {
          "internalType": "uint256",
          "name": "addedValue",
          "type": "uint256"
        }
      ],
      "name": "increaseAllowance",
      "outputs": [
        {
          "internalType": "bool",
          "name": "",
          "type": "bool"
        }
      ],
      "stateMutability": "nonpayable",
      "type": "function"
    },
    {
      "inputs": [],
      "name": "name",
      "outputs": [
        {
          "internalType": "string",
          "name": "",
          "type": "string"
        }
      ],
      "stateMutability": "view",
      "type": "function"
    },
    {
      "inputs": [],
      "name": "symbol",
      "outputs": [
        {
          "internalType": "string",
          "name": "",
          "type": "string"
        }
      ],
      "stateMutability": "view",
      "type": "function"
    },
    {
      "inputs": [],
      "name": "totalSupply",
      "outputs": [
        {
          "internalType": "uint256",
          "name": "",
          "type": "uint256"
        }
      ],
      "stateMutability": "view",
      "type": "function"
    },
    {
      "inputs": [
        {
          "internalType": "address",
          "name": "to",
          "type": "address"
        },
        {
          "internalType": "uint256",
          "name": "amount",
          "type": "uint256"
        }
      ],
      "name": "transfer",
      "outputs": [
        {
          "internalType": "bool",
          "name": "",
          "type": "bool"
        }
      ],
      "stateMutability": "nonpayable",
      "type": "function"
    },
    {
      "inputs": [
        {
          "internalType": "address",
          "name": "from",
          "type": "address"
        },
        {
          "internalType": "address",
          "name": "to",
          "type": "address"
        },
        {
          "internalType": "uint256",
          "name": "amount",
          "type": "uint256"
        }
      ],
      "name": "transferFrom",
      "outputs": [
        {
          "internalType": "bool",
          "name": "",
          "type": "bool"
        }
      ],
      "stateMutability": "nonpayable",
      "type": "function"
    }
  ],
  "bytecode": "0x60806040523480156200001157600080fd5b506040518060400160405280600a81526020017f50756e6b20546f6b656e000000000000000000000000000000000000000000008152506040518060400160405280600381526020017f504b54000000000000000000000000000000000000000000000000000000000081525081600390805190602001906200009692919062000281565b508060049080519060200190620000af92919062000281565b505050620000ef33620000c7620000f560201b60201c565b6006620000d5919062000416565b600a620000e39190620004af565b620000fe60201b60201c565b620006cd565b60006012905090565b600073ffffffffffffffffffffffffffffffffffffffff168273ffffffffffffffffffffffffffffffffffffffff16141562000171576040517f08c379a0000000000000000000000000000000000000000000000000000000008152600401620001689062000369565b60405180910390fd5b62000185600083836200027760201b60201c565b8060026000828254620001999190620003b9565b92505081905550806000808473ffffffffffffffffffffffffffffffffffffffff1673ffffffffffffffffffffffffffffffffffffffff1681526020019081526020016000206000828254620001f09190620003b9565b925050819055508173ffffffffffffffffffffffffffffffffffffffff16600073ffffffffffffffffffffffffffffffffffffffff167fddf252ad1be2c89b69c2b068fc378daa952ba7f163c4a11628f55a4df523b3ef836040516200025791906200038b565b60405180910390a362000273600083836200027c60201b60201c565b5050565b505050565b505050565b8280546200028f9062000603565b90600052602060002090601f016020900481019282620002b35760008555620002ff565b82601f10620002ce57805160ff1916838001178555620002ff565b82800160010185558215620002ff579182015b82811115620002fe578251825591602001919060010190620002e1565b5b5090506200030e919062000312565b5090565b5b808211156200032d57600081600090555060010162000313565b5090565b600062000340601f83620003a8565b91506200034d82620006a4565b602082019050919050565b6200036381620005ec565b82525050565b60006020820190508181036000830152620003848162000331565b9050919050565b6000602082019050620003a2600083018462000358565b92915050565b600082825260208201905092915050565b6000620003c682620005ec565b9150620003d383620005ec565b9250827fffffffffffffffffffffffffffffffffffffffffffffffffffffffffffffffff038211156200040b576200040a62000639565b5b828201905092915050565b60006200042382620005f6565b91506200043083620005f6565b92508260ff0382111562000449576200044862000639565b5b828201905092915050565b6000808291508390505b6001851115620004a6578086048111156200047e576200047d62000639565b5b60018516156200048e5780820291505b80810290506200049e8562000697565b94506200045e565b94509492505050565b6000620004bc82620005ec565b9150620004c983620005f6565b9250620004f87fffffffffffffffffffffffffffffffffffffffffffffffffffffffffffffffff848462000500565b905092915050565b600082620005125760019050620005e5565b81620005225760009050620005e5565b81600181146200053b576002811462000546576200057c565b6001915050620005e5565b60ff8411156200055b576200055a62000639565b5b8360020a91508482111562000575576200057462000639565b5b50620005e5565b5060208310610133831016604e8410600b8410161715620005b65782820a905083811115620005b057620005af62000639565b5b620005e5565b620005c5848484600162000454565b92509050818404811115620005df57620005de62000639565b5b81810290505b9392505050565b6000819050919050565b600060ff82169050919050565b600060028204905060018216806200061c57607f821691505b6020821081141562000633576200063262000668565b5b50919050565b7f4e487b7100000000000000000000000000000000000000000000000000000000600052601160045260246000fd5b7f4e487b7100000000000000000000000000000000000000000000000000000000600052602260045260246000fd5b60008160011c9050919050565b7f45524332303a206d696e7420746f20746865207a65726f206164647265737300600082015250565b61170380620006dd6000396000f3fe6080604052600436106100a75760003560e01c806370a082311161006457806370a08231146101e45780637e72fb521461022157806395d89b411461023d578063a457c2d714610268578063a9059cbb146102a5578063dd62ed3e146102e2576100a7565b806306fdde03146100ac578063095ea7b3146100d757806318160ddd1461011457806323b872dd1461013f578063313ce5671461017c57806339509351146101a7575b600080fd5b3480156100b857600080fd5b506100c161031f565b6040516100ce91906110b1565b60405180910390f35b3480156100e357600080fd5b506100fe60048036038101906100f99190610eb9565b6103b1565b60405161010b9190611096565b60405180910390f35b34801561012057600080fd5b506101296103d4565b60405161013691906111f3565b60405180910390f35b34801561014b57600080fd5b5061016660048036038101906101619190610e6a565b6103de565b6040516101739190611096565b60405180910390f35b34801561018857600080fd5b5061019161040d565b60405161019e919061120e565b60405180910390f35b3480156101b357600080fd5b506101ce60048036038101906101c99190610eb9565b610416565b6040516101db9190611096565b60405180910390f35b3480156101f057600080fd5b5061020b60048036038101906102069190610e05565b6104c0565b60405161021891906111f3565b60405180910390f35b61023b60048036038101906102369190610e05565b610508565b005b34801561024957600080fd5b5061025261056b565b60405161025f91906110b1565b60405180910390f35b34801561027457600080fd5b5061028f600480360381019061028a9190610eb9565b6105fd565b60405161029c9190611096565b60405180910390f35b3480156102b157600080fd5b506102cc60048036038101906102c79190610eb9565b6106e7565b6040516102d99190611096565b60405180910390f35b3480156102ee57600080fd5b5061030960048036038101906103049190610e2e565b61070a565b60405161031691906111f3565b60405180910390f35b60606003805461032e90611354565b80601f016020809104026020016040519081016040528092919081815260200182805461035a90611354565b80156103a75780601f1061037c576101008083540402835291602001916103a7565b820191906000526020600020905b81548152906001019060200180831161038a57829003601f168201915b5050505050905090565b6000806103bc610791565b90506103c9818585610799565b600191505092915050565b6000600254905090565b6000806103e9610791565b90506103f6858285610964565b6104018585856109f0565b60019150509392505050565b60006012905090565b600080610421610791565b90506104b5818585600160008673ffffffffffffffffffffffffffffffffffffffff1673ffffffffffffffffffffffffffffffffffffffff16815260200190815260200160002060008973ffffffffffffffffffffffffffffffffffffffff1673ffffffffffffffffffffffffffffffffffffffff168152602001908152602001600020546104b09190611245565b610799565b600191505092915050565b60008060008373ffffffffffffffffffffffffffffffffffffffff1673ffffffffffffffffffffffffffffffffffffffff168152602001908152602001600020549050919050565b6000341161054b576040517f08c379a000000000000000000000000000000000000000000000000000000000815260040161054290611153565b60405180910390fd5b60006103e83461055b919061129b565b90506105678282610c71565b5050565b60606004805461057a90611354565b80601f01602080910402602001604051908101604052809291908181526020018280546105a690611354565b80156105f35780601f106105c8576101008083540402835291602001916105f3565b820191906000526020600020905b8154815290600101906020018083116105d657829003601f168201915b5050505050905090565b600080610608610791565b90506000600160008373ffffffffffffffffffffffffffffffffffffffff1673ffffffffffffffffffffffffffffffffffffffff16815260200190815260200160002060008673ffffffffffffffffffffffffffffffffffffffff1673ffffffffffffffffffffffffffffffffffffffff168152602001908152602001600020549050838110156106ce576040517f08c379a00000000000000000000000000000000000000000000000000000000081526004016106c5906111b3565b60405180910390fd5b6106db8286868403610799565b60019250505092915050565b6000806106f2610791565b90506106ff8185856109f0565b600191505092915050565b6000600160008473ffffffffffffffffffffffffffffffffffffffff1673ffffffffffffffffffffffffffffffffffffffff16815260200190815260200160002060008373ffffffffffffffffffffffffffffffffffffffff1673ffffffffffffffffffffffffffffffffffffffff16815260200190815260200160002054905092915050565b600033905090565b600073ffffffffffffffffffffffffffffffffffffffff168373ffffffffffffffffffffffffffffffffffffffff161415610809576040517f08c379a000000000000000000000000000000000000000000000000000000000815260040161080090611193565b60405180910390fd5b600073ffffffffffffffffffffffffffffffffffffffff168273ffffffffffffffffffffffffffffffffffffffff161415610879576040517f08c379a0000000000000000000000000000000000000000000000000000000008152600401610870906110f3565b60405180910390fd5b80600160008573ffffffffffffffffffffffffffffffffffffffff1673ffffffffffffffffffffffffffffffffffffffff16815260200190815260200160002060008473ffffffffffffffffffffffffffffffffffffffff1673ffffffffffffffffffffffffffffffffffffffff168152602001908152602001600020819055508173ffffffffffffffffffffffffffffffffffffffff168373ffffffffffffffffffffffffffffffffffffffff167f8c5be1e5ebec7d5bd14f71427d1e84f3dd0314c0f7b2291e5b200ac8c7c3b9258360405161095791906111f3565b60405180910390a3505050565b6000610970848461070a565b90507fffffffffffffffffffffffffffffffffffffffffffffffffffffffffffffffff81146109ea57818110156109dc576040517f08c379a00000000000000000000000000000000000000000000000000000000081526004016109d390611113565b60405180910390fd5b6109e98484848403610799565b5b50505050565b600073ffffffffffffffffffffffffffffffffffffffff168373ffffffffffffffffffffffffffffffffffffffff161415610a60576040517f08c379a0000000000000000000000000000000000000000000000000000000008152600401610a5790611173565b60405180910390fd5b600073ffffffffffffffffffffffffffffffffffffffff168273ffffffffffffffffffffffffffffffffffffffff161415610ad0576040517f08c379a0000000000000000000000000000000000000000000000000000000008152600401610ac7906110d3565b60405180910390fd5b610adb838383610dd1565b60008060008573ffffffffffffffffffffffffffffffffffffffff1673ffffffffffffffffffffffffffffffffffffffff16815260200190815260200160002054905081811015610b61576040517f08c379a0000000000000000000000000000000000000000000000000000000008152600401610b5890611133565b60405180910390fd5b8181036000808673ffffffffffffffffffffffffffffffffffffffff1673ffffffffffffffffffffffffffffffffffffffff16815260200190815260200160002081905550816000808573ffffffffffffffffffffffffffffffffffffffff1673ffffffffffffffffffffffffffffffffffffffff1681526020019081526020016000206000828254610bf49190611245565b925050819055508273ffffffffffffffffffffffffffffffffffffffff168473ffffffffffffffffffffffffffffffffffffffff167fddf252ad1be2c89b69c2b068fc378daa952ba7f163c4a11628f55a4df523b3ef84604051610c5891906111f3565b60405180910390a3610c6b848484610dd6565b50505050565b600073ffffffffffffffffffffffffffffffffffffffff168273ffffffffffffffffffffffffffffffffffffffff161415610ce1576040517f08c379a0000000000000000000000000000000000000000000000000000000008152600401610cd8906111d3565b60405180910390fd5b610ced60008383610dd1565b8060026000828254610cff9190611245565b92505081905550806000808473ffffffffffffffffffffffffffffffffffffffff1673ffffffffffffffffffffffffffffffffffffffff1681526020019081526020016000206000828254610d549190611245565b925050819055508173ffffffffffffffffffffffffffffffffffffffff16600073ffffffffffffffffffffffffffffffffffffffff167fddf252ad1be2c89b69c2b068fc378daa952ba7f163c4a11628f55a4df523b3ef83604051610db991906111f3565b60405180910390a3610dcd60008383610dd6565b5050565b505050565b505050565b600081359050610dea8161169f565b92915050565b600081359050610dff816116b6565b92915050565b600060208284031215610e1757600080fd5b6000610e2584828501610ddb565b91505092915050565b60008060408385031215610e4157600080fd5b6000610e4f85828601610ddb565b9250506020610e6085828601610ddb565b9150509250929050565b600080600060608486031215610e7f57600080fd5b6000610e8d86828701610ddb565b9350506020610e9e86828701610ddb565b9250506040610eaf86828701610df0565b9150509250925092565b60008060408385031215610ecc57600080fd5b6000610eda85828601610ddb565b9250506020610eeb85828601610df0565b9150509250929050565b610efe816112de565b82525050565b6000610f0f82611229565b610f198185611234565b9350610f29818560208601611321565b610f3281611413565b840191505092915050565b6000610f4a602383611234565b9150610f5582611424565b604082019050919050565b6000610f6d602283611234565b9150610f7882611473565b604082019050919050565b6000610f90601d83611234565b9150610f9b826114c2565b602082019050919050565b6000610fb3602683611234565b9150610fbe826114eb565b604082019050919050565b6000610fd6602283611234565b9150610fe18261153a565b604082019050919050565b6000610ff9602583611234565b915061100482611589565b604082019050919050565b600061101c602483611234565b9150611027826115d8565b604082019050919050565b600061103f602583611234565b915061104a82611627565b604082019050919050565b6000611062601f83611234565b915061106d82611676565b602082019050919050565b6110818161130a565b82525050565b61109081611314565b82525050565b60006020820190506110ab6000830184610ef5565b92915050565b600060208201905081810360008301526110cb8184610f04565b905092915050565b600060208201905081810360008301526110ec81610f3d565b9050919050565b6000602082019050818103600083015261110c81610f60565b9050919050565b6000602082019050818103600083015261112c81610f83565b9050919050565b6000602082019050818103600083015261114c81610fa6565b9050919050565b6000602082019050818103600083015261116c81610fc9565b9050919050565b6000602082019050818103600083015261118c81610fec565b9050919050565b600060208201905081810360008301526111ac8161100f565b9050919050565b600060208201905081810360008301526111cc81611032565b9050919050565b600060208201905081810360008301526111ec81611055565b9050919050565b60006020820190506112086000830184611078565b92915050565b60006020820190506112236000830184611087565b92915050565b600081519050919050565b600082825260208201905092915050565b60006112508261130a565b915061125b8361130a565b9250827fffffffffffffffffffffffffffffffffffffffffffffffffffffffffffffffff038211156112905761128f611386565b5b828201905092915050565b60006112a68261130a565b91506112b18361130a565b9250826112c1576112c06113b5565b5b828204905092915050565b60006112d7826112ea565b9050919050565b60008115159050919050565b600073ffffffffffffffffffffffffffffffffffffffff82169050919050565b6000819050919050565b600060ff82169050919050565b60005b8381101561133f578082015181840152602081019050611324565b8381111561134e576000848401525b50505050565b6000600282049050600182168061136c57607f821691505b602082108114156113805761137f6113e4565b5b50919050565b7f4e487b7100000000000000000000000000000000000000000000000000000000600052601160045260246000fd5b7f4e487b7100000000000000000000000000000000000000000000000000000000600052601260045260246000fd5b7f4e487b7100000000000000000000000000000000000000000000000000000000600052602260045260246000fd5b6000601f19601f8301169050919050565b7f45524332303a207472616e7366657220746f20746865207a65726f206164647260008201527f6573730000000000000000000000000000000000000000000000000000000000602082015250565b7f45524332303a20617070726f766520746f20746865207a65726f20616464726560008201527f7373000000000000000000000000000000000000000000000000000000000000602082015250565b7f45524332303a20696e73756666696369656e7420616c6c6f77616e6365000000600082015250565b7f45524332303a207472616e7366657220616d6f756e742065786365656473206260008201527f616c616e63650000000000000000000000000000000000000000000000000000602082015250565b7f41637475616c20657468657220616d6f756e742069732072657175697265642160008201527f2121000000000000000000000000000000000000000000000000000000000000602082015250565b7f45524332303a207472616e736665722066726f6d20746865207a65726f20616460008201527f6472657373000000000000000000000000000000000000000000000000000000602082015250565b7f45524332303a20617070726f76652066726f6d20746865207a65726f2061646460008201527f7265737300000000000000000000000000000000000000000000000000000000602082015250565b7f45524332303a2064656372656173656420616c6c6f77616e63652062656c6f7760008201527f207a65726f000000000000000000000000000000000000000000000000000000602082015250565b7f45524332303a206d696e7420746f20746865207a65726f206164647265737300600082015250565b6116a8816112cc565b81146116b357600080fd5b50565b6116bf8161130a565b81146116ca57600080fd5b5056fea2646970667358221220f961744396d9bd80aa563fe64ed198dc9586eb6c3dae0f2ee9fd552d6afa672864736f6c63430008010033",
  "linkReferences": {},
  "deployedLinkReferences": {}
}